:100000000C94E1000C9409010C9409010C944A0928
:100010000C944A090C944A090C9409010C944C085C
:100020000C9409010C9409010C9409010C94090128
:100030000C9409010C9409010C9409010C94090118
:100040000C9400090C9409010C94CE080C94A80897
:100050000C9409010C9409010C9409010C940901F8
:100060000C9409010C94090100407A10F35A00A085
:10007000724E18090010A5D4E80000E87648170071
:1000800000E40B54020000CA9A3B000000E1F505B1
:10009000000080969800000040420F000000A086FB
:1000A00001000000102700000000E803000000002D
:1000B0006400000000000A000000000001000000D1
:1000C00000002C76D888DC674F0823DFC1DFAE59EB
:1000D000E1B1B796E5E3E453C63AE651997696E87E
:1000E000E6C28426EB898C9B62ED407C6FFCEFBC02
:1000F0009C9F40F2BAA56FA5F490055A2AF75C932D
:100100006B6CF9676DC11BFCE0E40D47FEF520E662
:10011000B500D0ED902E0300943577050080841E45
:10012000080000204E0A000000C80C333333330FA0
:10013000986E12831141EF8D2114893BE65516CF3D
:10014000FEE6DB18D1844B381BF77C1D901DA4BB49
:10015000E424203284725E228100C9F124ECA1E5FE
:100160003D2700000000240027002A0000000008AE
:10017000000201000003040700000000000000006E
:1001800002000000002300260029000000000025D6
:100190000028002B000404040404040404020202E6
:1001A00002020203030303030301020408102040B8
:1001B0008001020408102001020408102000C20976
:1001C000F91111241FBECFEFD8E0DEBFCDBF23E071
:1001D000A8E4B2E001C01D92A23FB207E1F712E02D
:1001E000A0E0B1E0E8E0F3E302C005900D92A8348E
:1001F000B107D9F710E0C0EED0E004C02197FE01AE
:100200000E946317CF3DD107C9F70E94130B0C94CE
:1002100077190C9400000F931F93CF93DF93C09135
:10022000B203E3EBF3E0CD3211F0E2EBF3E08F0148
:1002300020E030E0A901D801DD918D0180ED8D0F26
:100240008A3090F4AAE0B0E00E94B4152D2FDD0FA3
:10025000330B440B550B260F371F481F591F2053D4
:10026000310941095109E7CFA4E6B0E00E94B41575
:10027000AB01BC01DF01819190ED980F9A30D0F372
:100280008E3259F511968C91119790ED980F9A3006
:1002900020F5082E000C990BC0972AE0289F8001BA
:1002A000299F100D1124012E000C220B330B400F3F
:1002B000511F621F731F12968C9190ED980F9A3008
:1002C00060F4082E000C990BC097092E000CAA0BA5
:1002D000BB0B480F591F6A1F7B1FCD3239F4709535
:1002E0006095509541955F4F6F4F7F4FCB01BA019D
:1002F000DF91CF911F910F9108954F925F926F926E
:100300007F928F929F92AF92BF92CF92DF92EF92A5
:10031000FF921F93CF93DF93C2EBD3E0FE01C12C7A
:10032000D12C7601119180ED810F8A30A8F4AAE0DA
:10033000B0E0A70196010E94B415C12E110FDD088F
:10034000EE08FF08C60ED71EE81EF91E80E3C81A85
:10035000D108E108F108E6CFC701B60124E630E094
:1003600040E050E00E9441179B01AC0160EA76E852
:1003700081E090E00E941D174B015C019E01899174
:1003800090ED980F9A30D0F38E3221F5E901219645
:1003900080E1482E87E2582E612C712CA99180EDC6
:1003A0008A0F8A30B8F40A2E000CBB0BD097A30139
:1003B00092010E946917860E971EA81EB91EC301DE
:1003C000B2012AE030E040E050E00E9441172901EC
:1003D0003A01E4CFC701B60124E630E040E050E046
:1003E0000E94411760E472E48FE090E00E941D17C4
:1003F0006B017C01C501B4016D5F7F4F8F4F9F4F33
:1004000026E030E040E050E00E944117C701B6010D
:10041000620F731F841F951FDF91CF911F91FF9073
:10042000EF90DF90CF90BF90AF909F908F907F9094
:100430006F905F904F900895AF92BF92CF92DF92EE
:10044000EF92FF920F931F93CF93DF936C017B0189
:100450008B01040F151FEB015E01AE18BF08C0171A
:10046000D10759F06991D601ED91FC910190F0818D
:10047000E02DC6010995892B79F7C501DF91CF9150
:100480001F910F91FF90EF90DF90CF90BF90AF90B2
:100490000895FC01538D448D252F30E0842F90E08A
:1004A000821B930B541710F0CF960895019708956F
:1004B000FC01918D828D981761F0A28DAE0FBF2F38
:1004C000B11D5D968C91928D9F5F9F73928F90E08E
:1004D00008958FEF9FEF0895FC01918D828D9817FD
:1004E00031F0828DE80FF11D858D90E008958FEF3A
:1004F0009FEF0895FC01918D228D892F90E0805C03
:100500009F4F821B91098F739927089587EA92E084
:100510000E947A0221E0892B09F420E0822F0895BD
:1005200080E090E0892B29F00E94860281110C94D2
:1005300000000895FC01A48DA80FB92FB11DA35A86
:10054000BF4F2C91848D90E001968F739927848FF3
:10055000A689B7892C93A089B1898C918370806416
:100560008C93938D848D981306C00288F389E02DB7
:1005700080818F7D80830895EF92FF920F931F9368
:10058000CF93DF93EC0181E0888F9B8D8C8D981346
:100590001AC0E889F989808185FF15C09FB7F89452
:1005A000EE89FF896083E889F9898081837080649E
:1005B00080839FBF81E090E0DF91CF911F910F91E9
:1005C000FF90EF900895F62E0B8D10E00F5F1F4FF8
:1005D0000F731127E02E8C8D8E110CC00FB607FC07
:1005E000FACFE889F989808185FFF5CFCE010E9495
:1005F0009A02F1CFEB8DEC0FFD2FF11DE35AFF4F67
:10060000F0829FB7F8940B8FEA89FB898081806222
:10061000CFCFCF93DF93EC01888D8823B9F0AA89DF
:10062000BB89E889F9898C9185FD03C0808186FDAD
:100630000DC00FB607FCF7CF8C9185FFF2CF8081FC
:1006400085FFEDCFCE010E949A02E9CFDF91CF91D5
:100650000895833081F028F4813099F08230A9F038
:1006600008958730A9F08830C9F08430B1F48091C2
:1006700080008F7D03C0809180008F778093800001
:10068000089584B58F7784BD089584B58F7DFBCFA1
:100690008091B0008F778093B00008958091B00072
:1006A0008F7DF9CF1F93CF93DF93282F30E0F9018F
:1006B000E459FE4F8491F901E755FE4FD491F901B9
:1006C000EB56FE4FC491CC23A9F0162F81110E9446
:1006D0002903EC2FF0E0EE0FFF1FE557FE4FA59129
:1006E000B4918FB7F894EC91111108C0D095DE2326
:1006F000DC938FBFDF91CF911F910895DE2BF8CF50
:100700009091000189130BC0E0E8F1E0E4919FEFC4
:1007100090930001E13049F028F0E23061F060E0B0
:100720000C94520310926E00FACF90916F009D7F4F
:1007300090936F00F4CF909170009D7F9093700024
:1007400091E09093B0009091B100987F9460909365
:10075000B1001092B300E3CFCF93DF9390E0FC01A0
:10076000E755FE4F24918B569E4FFC0184918823C0
:10077000D1F090E0880F991FFC01EE59FE4FA59132
:10078000B491FC01E557FE4FC591D49161110EC0A3
:100790009FB7F8948C91E22FE0958E238C9328815B
:1007A000E223E8839FBFDF91CF9108958FB7F8943C
:1007B000EC91E22BEC938FBFF6CF3FB7F89480918A
:1007C0008D0290918E02A0918F02B091900226B579
:1007D000A89B05C02F3F19F00196A11DB11D3FBF79
:1007E000BA2FA92F982F8827BC01CD01620F711D48
:1007F000811D911D42E0660F771F881F991F4A9542
:10080000D1F708958F929F92AF92BF92CF92DF92CD
:10081000EF92FF924B015C010E94DD036B017C01B2
:100820000E94DD036C197D098E099F09683E7340A3
:1008300081059105A8F321E0821A9108A108B10869
:1008400088EEC80E83E0D81EE11CF11C81149104CF
:10085000A104B10429F7FF90EF90DF90CF90BF90F3
:10086000AF909F908F9008952FB7F8946091890270
:1008700070918A0280918B0290918C022FBF089513
:10088000089520919302309194022817390771F44A
:100890009091910280919202981741F0E09191021B
:1008A000F0E0E85BFD4F808190E008958FEF9FEFCF
:1008B00008950895EF92FF920F931F93CF93DF93C4
:1008C000DC015C96ED90FC905D97E114F10479F405
:1008D00081E090E013969C938E93129790E080E0D5
:1008E000DF91CF911F910F91FF90EF900895519656
:1008F000ED91FC91529750968C915097982F90952E
:100900000FB75E962C915E97122F127021FD6095A5
:10091000F8942081112319F1282B2083E7012197D6
:10092000F1F728E0462F50E0308160FF1AC0382BE5
:100930003083E7012197F1F7BA017595679521504A
:1009400089F7112381F08081892380830FBF5C9612
:100950008D919C910197F1F781E090E0C1CF29231F
:10096000DCCF3923E5CF9081892BEFCF2091930203
:10097000309194022817390771F4809192022091E6
:10098000910290E0805C9F4F821B910960E470E0CF
:100990000E942D17089590E080E008952091930221
:1009A0003091940228173907B9F4909191028091FF
:1009B0009202981789F0E0919102F0E0E85BFD4F18
:1009C00080812091910230E02F5F3F4F2F733327BA
:1009D0002093910290E008958FEF9FEF089590E0AB
:1009E00080E00895CF93DF93EC0160E08E810E9458
:1009F000520361E08E810E94520360E08E810E946A
:100A000052038BE891E00197F1F7DF91CF910895C0
:100A1000CF92DF92EF92FF920F931F93CF93DF93CA
:100A20006C017C0187E0E80EF11CD0E0C0E0062FED
:100A300010E0B8010C2E02C0759567950A94E2F794
:100A40006170F70181917F010E9452032196C430A9
:100A5000D10579F7C601DF91CF911F910F91FF90DA
:100A6000EF90DF90CF900C94F204CF92DF92EF9250
:100A7000FF920F931F93CF93DF93EC01F62E642F19
:100A80008C810E9452038D818F3F19F060E00E949B
:100A900052030F2D10E08F8584FF25C06E0187E083
:100AA000C80ED11CF12CE12CB8010E2C02C075959A
:100AB00067950A94E2F76170F60181916F010E94D7
:100AC0005203FFEFEF1AFF0A88E0E816F10461F71E
:100AD000CE01DF91CF911F910F91FF90EF90DF90AA
:100AE000CF900C94F204B80184E0759567958A95CF
:100AF000E1F7CE010E9408056F2DCE01DF91CF9165
:100B00001F910F91FF90EF90DF90CF900C9408050C
:100B100040E0682F84E493E00C94350581E00E9466
:100B200088058BE39FE10197F1F70895CF93DF9359
:100B3000823029F4909153039860909353038093EB
:100B400057031092580380E48093590380E1809307
:100B50005A0380E580935B0361E0809148030E9423
:100B6000AC03809149038F3F19F061E00E94AC0310
:100B700061E080914A030E94AC03C4E4D3E09E018B
:100B8000245433408091530384FD0BC084E090E0F3
:100B900021962817390744F461E08E810E94AC0346
:100BA000EECF88E090E0F4CF8BE39DE00197F1F782
:100BB00060E0809148030E94520360E080914A0304
:100BC0000E945203809149038F3F19F060E00E9418
:100BD00052038091530384FD34C063E084E493E0C6
:100BE0000E940805CBE4D6E4CE010197F1F763E05B
:100BF00084E493E00E9408052197F1F763E084E420
:100C000093E00E94080583E592E00197F1F762E026
:100C100084E493E00E9408058091530380620E945F
:100C2000880584E0809354038CE00E9488050E942C
:100C30008E0582E08093550386E0DF91CF910C947E
:100C4000880580620E9488058BE496E40197F1F79D
:100C50008091530380620E94880583E592E00197AA
:100C6000F1F78091530380620E948805D5CF90915F
:100C70005703691710F06FEF690FE62FF0E0EC5B98
:100C8000FC4F9489890F80680C94880541E00E948C
:100C9000350581E090E00895FB0101900020E9F71F
:100CA0003197AF01461B570BDC01ED91FC9102809F
:100CB000F381E02D09948F929F92AF92BF920F9390
:100CC0001F93CF93DF93CDB7DEB7A1970FB6F894FC
:100CD000DEBF0FBECDBF19A2423008F44AE08E013C
:100CE0000F5D1F4F842E912CB12CA12CA5019401D6
:100CF0000E944117E62FB901CA01EA3004F5E05D10
:100D0000D801EE938D01232B242B252B79F790E02E
:100D100080E0109729F0BD018FEC93E00E944C0613
:100D2000A1960FB6F894DEBF0FBECDBFDF91CF9175
:100D30001F910F91BF90AF909F908F900895E95CA5
:100D4000DFCF4F925F926F927F928F929F92AF927E
:100D5000BF92CF92DF92EF92FF920F931F93CF93A8
:100D60006B017C01742EAC019B010E94181767E394
:100D700071E0811126C046015701E894B7F82FEFC2
:100D80003FEF4FE75FE7C501B4010E9418178111DB
:100D90000CC02FEF3FEF4FE75FE7C501B4010E94A2
:100DA00090146BE371E0181664F02FEF3FEF4FE7FC
:100DB0005FE4C701B6010E9413171816ACF46FE385
:100DC00071E08FEC93E0CF911F910F91FF90EF9026
:100DD000DF90CF90BF90AF909F908F907F906F905B
:100DE0005F904F900C944C062FEF3FEF4FE75FEC76
:100DF000C701B6010E94901487FDE1CF20E030E0EA
:100E0000A901C701B6010E94901410E000E087FF1D
:100E10000AC06DE28FEC93E00E945A048C01F7FA4D
:100E2000F094F7F8F094C0E060E070E080E09FE3B9
:100E30007C1641F020E030E040E251E40E9472165E
:100E4000CF5FF6CFA70196010E9406162B013C0149
:100E50000E94E4164B015C014AE00E945B067C01A3
:100E6000E00EF11ECC23C1F1C501B4010E9495141E
:100E70009B01AC01C301B2010E9405164B015C014C
:100E80006EE28FEC93E00E945A04E80EF91EC15006
:100E900018F120E030E040E251E4C501B4010E94C5
:100EA000F6142B013C010E94E4164B01B12CA12C3D
:100EB0004AE0C501B4010E945B06E80EF91EC501B7
:100EC000B4010E9495149B01AC01C301B2010E94C0
:100ED00005164B015C01DBCFC701CF911F910F912C
:100EE000FF90EF90DF90CF90BF90AF909F908F904A
:100EF0007F906F905F904F9008950C944C06CF9325
:100F0000DF93EC0188819981009711F00E942118EC
:100F1000198218821D821C821B821A82DF91CF9156
:100F20000895FC0180819181009711F00C942118A3
:100F300008950F931F93CF93DF93EC0188819981DC
:100F4000009759F02A813B812617370730F081E05E
:100F5000DF91CF911F910F9108958B016F5F7F4FAC
:100F60000E94AA18009759F0998388831B830A83EB
:100F70002C813D81232B59F7FC011082E8CF80E0C2
:100F8000E7CFEF92FF920F931F93CF93DF936115FB
:100F9000710541F480E0DF91CF911F910F91FF9097
:100FA000EF90089541155105B1F07B01EC010C81E2
:100FB0001D81040F151FB8010E949907882351F362
:100FC000288139818C819D81B701820F931F0E94F6
:100FD00070191D830C8381E0DECFEF92FF920F9397
:100FE0001F93CF93DF93EC017B018A01BA010E942A
:100FF000990781110BC0CE010E947F07CE01DF91BE
:10100000CF911F910F91FF90EF9008951D830C8356
:10101000B701888199810E947019F0CFEF92FF92F9
:101020000F931F93CF93DF93CDB7DEB7A1970FB682
:10103000F894DEBF0FBECDBF7C01CB01BA01F70132
:101040001182108213821282158214828E010F5F28
:101050001F4F22E044E00E9415120097C9F0FC01E6
:1010600001900020E9F73197AF01481B590BBC01F3
:10107000C7010E94ED07A1960FB6F894DEBF0FBE20
:10108000CDBFDF91CF911F910F91FF90EF90089509
:10109000C7010E947F07EFCF1F920F920FB60F92EA
:1010A00011242F933F934F935F936F937F938F936D
:1010B0009F93AF93BF93EF93FF9380919A02909188
:1010C0009B02A0919C02B0919D02892B8A2B8B2BB5
:1010D000D1F190919502E0919602F0919702808172
:1010E0008927808380919A0290919B02A0919C0213
:1010F000B0919D02181619061A061B069CF48091E1
:101100009A0290919B02A0919C02B0919D0201973E
:10111000A109B10980939A0290939B02A0939C022B
:10112000B0939D02FF91EF91BF91AF919F918F91ED
:101130007F916F915F914F913F912F910F900FBED3
:101140000F901F901895809100010E948003EACFB4
:101150001F920F920FB60F9211242F933F934F932C
:101160005F936F937F938F939F93AF93BF93EF930F
:10117000FF9387EA92E00E949A02FF91EF91BF915C
:10118000AF919F918F917F916F915F914F913F911F
:101190002F910F900FBE0F901F9018951F920F92D6
:1011A0000FB60F9211242F938F939F93EF93FF937A
:1011B000E091B702F091B8028081E091BD02F09118
:1011C000BE0282FD1BC090818091C0028F5F8F7331
:1011D0002091C102821741F0E091C002F0E0E95590
:1011E000FD4F958F8093C002FF91EF919F918F915A
:1011F0002F910F900FBE0F901F9018958081F4CF04
:101200001F920F920FB60F9211242F933F938F933B
:101210009F93AF93BF938091890290918A02A0918E
:101220008B02B0918C023091880223E0230F2D377E
:1012300058F50196A11DB11D209388028093890263
:1012400090938A02A0938B02B0938C0280918D02BE
:1012500090918E02A0918F02B09190020196A11DF3
:10126000B11D80938D0290938E02A0938F02B09354
:101270009002BF91AF919F918F913F912F910F90CD
:101280000FBE0F901F90189526E8230F0296A11D00
:10129000B11DD2CF1F920F920FB60F9211242F9330
:1012A0003F934F935F936F937F938F939F93AF93EE
:1012B000BF93EF93FF93E0919302F09194023097E4
:1012C00049F0A685B7858585968D91FF14C09C91C0
:1012D0008923A1F4FF91EF91BF91AF919F918F91DD
:1012E0007F916F915F914F913F912F910F900FBE22
:1012F0000F901F9018959C91892361F7A389B48959
:101300009C918589809589238C93868997890197FB
:10131000F1F7608D718DA685B785558538E020E0A1
:10132000CB010197F1F7822F90E095958795282FB3
:101330004C91452309F02068315091F7868D81FD4D
:1013400020958091920290E001968F7399273091B9
:101350009102381799F0A0919202B0E0A85BBD4FBE
:101360002C9380939202828D938D0197F1F7A3893C
:10137000B4898C919589892B8C93ACCF868D8160B3
:10138000868FF1CF1092AA021092A90288EE93E004
:10139000A0E0B0E08093AB029093AC02A093AD02CA
:1013A000B093AE022BE031E03093A8022093A70265
:1013B00025EC30E03093B4022093B30224EC30E00B
:1013C0003093B6022093B50220EC30E03093B8029F
:1013D0002093B70221EC30E03093BA022093B90297
:1013E00022EC30E03093BC022093BB0226EC30E0CC
:1013F0003093BE022093BD021092C0021092C1022F
:101400001092C2021092C3021092D2031092D10322
:101410008093D3039093D403A093D503B093D603C2
:1014200089E291E09093D0038093CF031092E6037A
:101430001092E5031092E8031092E7031092EA037A
:101440001092E9031092EC031092EB036091ED030C
:101450006E7F6D7F6093ED036695617081E0682714
:1014600088E00E94520361E088E00E94AC03E1EB57
:10147000F1E0E491E093DF03EDE9F1E0E491F0E0E5
:10148000EE0FFF1FE557FE4F859194919093E10376
:101490008093E00360E087E00E94AC038091ED035D
:1014A00081FD04C061E087E00E94520387E08093E1
:1014B000DB03E0EBF1E0E491E093DC03ECE9F1E045
:1014C000E491F0E0EE0FFF1FEF57FE4F85919491EE
:1014D0009093DE038093DD034FEF5FEFBA014093FB
:1014E0005C0350935D0360935E0370935F031092FF
:1014F00064031092650310926603109267038FEFE6
:1015000099ECAAE9BBE380936C0390936D03A093DD
:101510006E03B0936F038093740390937503A0934D
:101520007603B093770380937C0390937D03A0931D
:101530007E03B0937F038093840390938503A093ED
:101540008603B093870380938C0390938D03A093BD
:101550008E03B0938F03409394035093950360934D
:101560009603709397038FEF90E090939D03809381
:101570009C034093A0035093A1036093A203709334
:10158000A3034093A8035093A9036093AA03709305
:10159000AB031092B0031092B10382E08093C103B9
:1015A0001092C2031092C3031092C4031092C50399
:1015B0001092C6031092C7031092C8031092CA0378
:1015C0001092C9031092CC031092CB031092B20375
:1015D00010924703109246032DE131E0309345030A
:1015E000209344039CE0909348039FEF909349031A
:1015F0009BE090934A0395E090934B0394E0909383
:101600004C0393E090934D0380934E0310924F034D
:1016100010925003109251031092520310925303F0
:1016200081E00C949605CF93DF93CDB7DEB7689732
:101630000FB6F894DEBF0FBECDBF789484B582603C
:1016400084BD84B5816084BD85B5826085BD85B566
:10165000816085BD80916E00816080936E001092E4
:10166000810080918100826080938100809181005F
:1016700081608093810080918000816080938000F0
:101680008091B10084608093B1008091B00081604E
:101690008093B00080917A00846080937A0080917A
:1016A0007A00826080937A0080917A0081608093D2
:1016B0007A0080917A00806880937A001092C1004D
:1016C00082E00E9496050E948E0561E08DE00E94F6
:1016D000AC0360E087E00E94AC0360E082E00E941F
:1016E000370663E471E084E493E00E947D0761E0E3
:1016F00085E00E94370660E571E084E493E00E9493
:101700007D0768EE73E080E090E00E9402040E9492
:101710008E0560E084E00E94370667E571E084E4AE
:1017200093E00E947D0761E083E00E94370660E657
:1017300071E084E493E00E947D07E091B702F091AC
:10174000B80282E08083E091B302F091B40210828B
:10175000E091B502F091B6028FEC80831092BF0247
:10176000E091BB02F091BC0286E08083E091B90277
:10177000F091BA02808180618083E091B902F0919A
:10178000BA02808188608083E091B902F091BA0248
:10179000808180688083E091B902F091BA028081F3
:1017A0008F7D80831092EA031092E9031092E80380
:1017B0001092E7031092E6031092E5038DE991E0A1
:1017C0009093EC038093EB039091DB03963108F048
:1017D00047C02DEB30E03093E6032093E5032BE97F
:1017E00031E03093E8032093E7032CE231E03093BB
:1017F000EA032093E9032091680084E0983048F0E0
:1018000031E09E3008F430E081E001C0880F3A9565
:10181000EAF7822B809368002DE630E0983050F094
:101820002BE630E09E3030F02CE630E0963110F0C0
:1018300030E020E03093E3032093E203292F30E0EF
:10184000983008F082C081E001C0880F9A95EAF7CD
:101850008093E4038091EB039091EC030197F1F7FF
:101860008091E9039091EA03892B49F1E091930279
:10187000F091940223E0EF3CF20709F1309739F040
:10188000A389B4899C918589809589238C938091C3
:10189000ED038E7F8093ED031092920210929102DD
:1018A0008FEC93E09093940280939302E091E20393
:1018B000F091E30380819091E403892B80830E945F
:1018C00034046B017C0102E0BB24B3940E94340415
:1018D0006C197D098E099F09683E73408105910549
:1018E00008F0E7C287EA92E00E947A02892B71F33E
:1018F00087EA92E00E945802182F682F87EA92E048
:101900000E94BC028091C5039091C603A091C703B9
:10191000B091C8030196A11DB11D8093C50390939A
:10192000C603A093C703B093C803143209F4A0C23E
:10193000E091C3031532B4F41A3019F01D3009F0E8
:10194000A4C2EF30D0F0A12CD9C09E3040F4285072
:10195000310981E001C0880F2A95EAF779CF2E502E
:101960003109F7CF1A3269F31C3209F08EC2809127
:10197000B00381278093B003E4CF9091C203F0E0DD
:10198000EE54FC4F1082A090B103AA2009F43DC18F
:101990002091B203822F022E000C990B3FEB320FE5
:1019A000363008F0BEC0C7978295807F9091B30310
:1019B000292F092E000C330B4FEB490F463008F04E
:1019C000B8C027533109820F9091B003891313C116
:1019D000A090C403AA2009F4B6CF8091C9039091C6
:1019E000CA0301969093CA038093C9038091A4030C
:1019F0009091A503A091A603B091A7038093A003A3
:101A00009093A103A093A203B093A3038091AC038E
:101A10009091AD03A091AE03B091AF038093A80362
:101A20009093A903A093AA03B093AB038091C10341
:101A3000882309F487C0813009F060C08091600379
:101A400090916103A0916203B091630380935C0362
:101A500090935D03A0935E03B0935F03809168034E
:101A600090916903A0916A03B0916B038093640322
:101A700090936503A0936603B0936703809170030E
:101A800090917103A0917203B091730380936C03E2
:101A900090936D03A0936E03B0936F0380917803CE
:101AA00090917903A0917A03B0917B0380937403A2
:101AB00090937503A0937603B09377038091880386
:101AC00090918903A0918A03B0918B038093840342
:101AD00090938503A0938603B0938703809190032E
:101AE00090919103A0919203B091930380938C0302
:101AF00090938D03A0938E03B0938F038091C203C4
:101B00008F5F8093C2031092C30381E01A3209F001
:101B100080E08093B103AA2009F4E4CEB092A6023B
:101B2000E1CE2156263018F4875591093DCFC09754
:101B30003BCF9156963018F42755310944CF2053A6
:101B4000310941CF8091800390918103A09182035C
:101B5000B091830380937C0390937D03A0937E03D5
:101B6000B0937F038091600390916103A091620321
:101B7000B091630380935C0390935D03A0935E0335
:101B8000B0935F038091700390917103A0917203F1
:101B9000B091730380936C0390936D03A0936E03D5
:101BA000B0936F038091780390917903A0917A03A9
:101BB000B0917B038093740390937503A093760395
:101BC000B093770380919E0390919F0390939D0320
:101BD00080939C038091980390919903A0919A031C
:101BE000B0919B038093940390939503A0939603E5
:101BF000B093970383CF8091CB039091CC03019650
:101C00009093CC038093CB039ECE91111CC0A2EB8A
:101C1000B3E04AE651E09D01F90181919F018823DB
:101C200009F4E1C3FA019191AF018917A9F3E0E743
:101C3000F1E08D91882309F4D9C391918917C9F3F3
:101C40000093C1035BCFE091C103E23009F47BCE86
:101C50008091B203882309F476CE20E2E29FF0015E
:101C60001124E92B3197E932F10508F047CFE55C03
:101C7000F14F0C946317810E9C0EB10ECC0ED70E53
:101C8000110F180F220F2D0F7E0D7E0D7E0D7E0D74
:101C90007E0D7E0D7E0D7E0D7E0D7E0D7E0D7E0DEC
:101CA0007E0D7E0D7E0D7E0D7E0D7E0D7E0D7E0DDC
:101CB0007E0D7E0D7E0D810E960E9C0EB10ECC0E0D
:101CC000D70EF20EFD0E640EE2EBF3E020E030E002
:101CD000A901919080ED890D8A3008F099C0AAE0A1
:101CE000B0E00E94B415292D990C330B440B550B11
:101CF000260F371F481F591F205331094109510929
:101D0000E8CF0E940B01609360037093610380939E
:101D10006203909363030E9434046093A40370935E
:101D2000A5038093A6039093A703E8CE91E08134A6
:101D300009F47BC090E079C00E947D01609370033C
:101D40007093710380937203909373030E94340421
:101D50006093AC037093AD038093AE039093AF0395
:101D6000CDCE833509F0EFCD809170039091710352
:101D7000A0917203B0917303B095A0959095819551
:101D80009F4FAF4FBF4F8093700390937103A09309
:101D90007203B0937303B2CE0E947D016093780307
:101DA0007093790380937A0390937B03A7CE873552
:101DB00009F0C9CD8091780390917903A0917A03BD
:101DC000B0917B03B095A095909581959F4FAF4FB3
:101DD000BF4F8093780390937903A0937A03B093D5
:101DE0007B038CCE0E940B01609388037093890360
:101DF00080938A0390938B0381CE0E940B016093A2
:101E0000900370939103809392039093930376CE03
:101E1000209368033093690340936A0350936B03E4
:101E20006DCE91E081330CF485CF9093C40366CEE0
:101E300082EB93E00E943312992790939F03809343
:101E40009E035CCE0E940B016093980370939903EC
:101E500080939A0390939B0351CE0E940B01609351
:101E6000800370938103809382039093830346CE13
:101E70001092C3031092C2031092B0030093C103E7
:101E80001092B1031092C4032DCDEE3040F481E0E6
:101E90008E0F8093C303F0E0EE54FC4F10838091CB
:101EA000B10381111FCD8091B00318271093B003A7
:101EB00019CD0E948E0560E082E00E94370666E739
:101EC00071E084E493E00E947D0761E083E00E947A
:101ED000370662E871E084E493E00E947D0764EFD6
:101EE00071E080E090E00E9402040E948E05CC2404
:101EF000CA94DC2C760162EA262E61E0362EE3E7F6
:101F0000F1E08491E0EBF1E0A490ECE9F1E0B49031
:101F1000BB2061F181110E942903EB2DF0E0EE0F4F
:101F2000FF1FEF57FE4FA591B4918C91A822F1F0BD
:101F30000E948E0560E081E00E9437066DE871E046
:101F400084E493E00E947D0768EC70E080E090E01C
:101F50000E94020480E090E0892B89F20E948602B0
:101F6000882309F4C8CF0E940000C5CF0E948E05C7
:101F700060E081E00E9437066BE971E084E493E061
:101F80000E947D07809100018D3031F5E0E8F1E09D
:101F9000149117FDC3C061E08DE00E94AC031123D2
:101FA00009F48CC0123009F09DC08091B100887F87
:101FB00083608093B10089EF8093B300C0929A024E
:101FC000D0929B02E0929C02F0929D028091700060
:101FD000826080937000A2C08F3F09F09FC08DE0A7
:101FE00080930001E0E8F1E014911F3F09F496C0EE
:101FF000113021F150F0123009F43EC017FD8EC0AF
:1020000061E08DE00E94AC03CDCF14BC15BC84B55B
:10201000826084BD85B5816085BDF1018491E82F22
:10202000F0E0EE0FFF1FE557FE4F85919491E6EB30
:10203000F1E084918093990210E0ADCF109280007E
:10204000109281008091810088608093810080914E
:102050008100816080938100F1018491E82FF0E09C
:10206000EE0FFF1FE557FE4F85919491E6EBF1E0EF
:102070008491809398028FCF1092B0001092B1009B
:102080008091B00082608093B0008091B100816047
:102090008093B100F1018491E82FF0E0EE0FFF1F73
:1020A000E557FE4F85919491909397028093960205
:1020B000E6EBF1E08491809395026DCF85B5887F42
:1020C000836085BD8CE787BDC092A202D092A30237
:1020D000E092A402F092A50280916E00826080934B
:1020E0006E001CC0113009F061C180918100887FB1
:1020F0008160809381008FE39FE1909389008093BA
:102100008800C0929E02D0929F02E092A002F092BC
:10211000A10280916F00826080936F008091A6027F
:10212000882309F43FC180906C0390906D03A090C8
:102130006E03B0906F0340907403509075036090ED
:102140007603709077038091A8039091A903A091E2
:10215000AA03B091AB038F3F9F4FAF4FBF4F11F01A
:102160000E943404FFEF8F16F9EC9F06FAE9AF06E0
:10217000FBE3BF0609F422C1C501B4010E94971414
:1021800020E034E244E759E40E9472164B018C01CE
:10219000C301B2010E94971420E034E244E759E4FD
:1021A0000E9472162B013C016AEA71E08FEC93E009
:1021B0000E947D0764E670E080E090E00E940204E7
:1021C00065EB71E08FEC93E00E944C0661ED71E0ED
:1021D0008FEC93E00E944C0664E670E080E090E0B3
:1021E0000E94020464ED71E08FEC93E00E947D0791
:1021F00020E030E04AE754E4B401C8010E949014A2
:102200008111E7C0E0E050E030E020E046E06E2FD2
:10221000752F832F922F0E94A10660EE71E08FEC44
:1022200093E00E947D0720E030E04AE754E4B201E9
:10223000C3010E9490148111D1C0E0E050E030E071
:1022400020E046E06E2F752F832F922F0E94A1066B
:1022500064E670E080E090E00E9402046EEE71E0BF
:102260008FEC93E00E947D0760E072E08FEC93E0DA
:102270000E947D07A201B301CE010D960E940E08B7
:10228000A401B801CE0107960E940E081A82198295
:102290001C821B821E821D824EE250E062E172E0CF
:1022A000CE0101960E94ED074B855C856F81788594
:1022B000CE0101960E94C107811104C0CE01019692
:1022C0000E947F0741E050E061E472E0CE01019698
:1022D0000E94C107811104C0CE0101960E947F07B0
:1022E00049895A896D857E85CE0101960E94C10774
:1022F000811104C0CE0101960E947F0744E050E0A6
:1023000063E472E0CE0101960E94C107811104C00E
:10231000CE0101960E947F071C8A1B8A1E8A1D8A95
:10232000188E1F8A69817A816115710531F04D819E
:102330005E81CE0143960E94ED07CE0101960E9478
:102340009107CE0107960E949107CE010D960E943B
:1023500091074F89588D6B897C898FEC93E00E949F
:102360001C0261ED71E08FEC93E00E944C0664E684
:1023700070E080E090E00E9402046AE18FEC93E05C
:102380000E945A0461ED71E08FEC93E00E944C06CC
:1023900068EE73E080E090E00E940204CE01439674
:1023A0000E9491078DE00E948003D4CD123021F06D
:1023B0001111B4CE8FE387CE8FE3FECD812C912C0B
:1023C0000AE714E4412C512C8AE7682E94E4792E14
:1023D000EBCEE82D592D302F212F18CFE42D552D80
:1023E000362D272D2ECFB092C10388CB1092C1037A
:1023F00085CB89E291E09093D0038093CF038091C5
:102400009302909194028F5C934071F4E091E20307
:10241000F091E30390818091E40380958923808388
:1024200010929402109293020895EF920F931F93CB
:10243000CF93DF93E80134E047FD34E1042E000C34
:10244000550B57FF03C0519541955109E32E022FBB
:10245000242FAE010E945912CE01DF91CF911F911E
:102460000F91EF900895FC0188279927E894219116
:102470002032E9F3293010F02E30C8F32B3241F02E
:102480002D3239F4689404C00E945112820F911DBC
:10249000219120532A30C0F31EF4909581959F4FCF
:1024A00008957AE0979F902D879F802D910D11249C
:1024B0000895A9E0B0E0EFE5F2E10C94C5156A01DA
:1024C000F22EB02E102FFBE3AF2EA01608F41BE364
:1024D0001F5F012F27E0AE014F5F5F4F0E94B813CF
:1024E000BC018981982F9970913009F43FC09BE21B
:1024F000E1FC04C09E2D9170E0FC3AC05E2D50714D
:10250000E82FE87083FF46C084E0911101C083E0AA
:10251000EF2DE81B8F1508F0E0E0D6018E2F20E2AA
:10252000552351F1992329F0D6019C93C6010196B8
:102530006C0196012D5F3F4FE2FE24C08EE4D60170
:102540008C9391E411969C93119712968C93D901D8
:102550008E2F90E281111BC0E20FF32FF11D10822C
:102560008EEF9FEF2996ECE00C94E1159DE2C6CF2B
:1025700090E2C4CF2D9381508111FCCFCE0ED11C9F
:10258000E0E0D0CF8EE6D6018C9391E6DBCF9D9331
:102590008150E0CF482F447082FF3DC084E091110C
:1025A00001C083E08F1510F4EF2DE81BD6018E2FAC
:1025B00020E2552309F1992329F0D6019C93C60105
:1025C00001966C0196012D5F3F4FE2FE1BC089E42E
:1025D000D6018C938EE411968C93119786E4129613
:1025E0008C93D9018E2F90E2882309F4B5CF9D9367
:1025F0008150FACF2D9381508111FCCFCE0ED11C8A
:10260000E0E0D9CF89E6D6018C938EE611968C93C3
:10261000119786E6E4CF9B0177FF02C030E020E00F
:10262000A1E0B0E0911102C0B0E0A0E0F901319664
:10263000AE0FBF1F8B2C912CBB2009F461C054013D
:10264000EFEFAE1ABE0AAA0DBB1DFA161B0619F053
:1026500014F04F2D4A1B511188C0E3FC59C076017C
:10266000A42FB0E2A1114FC0C40ED11C992309F4CC
:102670005BC040E0D6011196F60190836D015523B1
:1026800009F448C0012F060F9A81582F507184FF1A
:1026900003C0913309F4015010160CF047C0093003
:1026A00008F008E0EEE2FE2E5B01A01AB1088501F9
:1026B0009194819491082F3F320729F4D601FC921E
:1026C000F60131966F016217730794F10217130731
:1026D0007CF5DB01A21BB30BAA24A394B12CAC0E96
:1026E000BD1EAA0DBB1D11968C9121503109D6013A
:1026F000119628153905F4F0F60180836D01DBCFC2
:10270000B12CA12CA0CFF701B1937F01A150AACF8A
:102710009111B0CFD601942F50E302C05D93915038
:102720009111FCCFC40ED11C40E0ACCF01E0BACF78
:1027300080E3DBCF6217730731F4963388F4953367
:1027400011F4552369F0F6018083FD01842F90E296
:10275000811108C0A40FB11D1C9290E080E002CF4F
:1027600081E3F1CF91938150F3CF911183CF8ACF41
:10277000283008F027E03327DA01990F311D87FD53
:10278000916000966105710539F432602E5F3D93CA
:1027900030E32A95E1F708959F3F30F080387105C6
:1027A000610509F03C5F3C5F3D93913008F0806823
:1027B000911DDF93CF931F930F93FF92EF92192FE9
:1027C000987F9695E92F96959695E90FFF27EE53FA
:1027D000FF4F99273327EE24FF24A701E701059037
:1027E0000894079428F4360FE71EF81E491F511D60
:1027F000660F771F881F991F0694A1F7059007940D
:1028000028F4E70EF81E491F561FC11D770F881FB9
:10281000991F661F0694A1F70590079428F4F80EF7
:10282000491F561FC71FD11D880F991F661F771F8D
:102830000694A1F70590079420F4490F561FC71F6F
:10284000D81F990F661F771F881F0694A9F78491D8
:102850001095177041F0D695C79557954795F79401
:10286000E7941A95C1F7E8E6F0E0689415901591A1
:1028700035916591959105907FE27395E118F10A84
:10288000430B560BC90BD009C0F7E10CF11E431FD7
:10289000561FC91FD01D7EF4703311F48A95E6CF00
:1028A000E894015030F0080F0AF40027021708F4EA
:1028B000202F2395022F7A3328F079E37D932A95F0
:1028C000E9F710C07D932A9589F606949795679548
:1028D000379517951794E118F10A430B560BC90B5E
:1028E000D00998F023957E9173957A3308F070E3C0
:1028F0007C932013B8F77E9170617D9330F08395BF
:1029000071E37D9370E32A95E1F71124EF90FF9036
:102910000F911F91CF91DF91992787FD9095089591
:102920000E94D21408F481E00895E89409C097FB4E
:102930003EF490958095709561957F4F8F4F9F4F96
:102940009923A9F0F92F96E9BB279395F6958795DA
:1029500077956795B795F111F8CFFAF4BB0F11F49D
:1029600060FF1BC06F5F7F4F8F4F9F4F16C0882344
:1029700011F096E911C0772321F09EE8872F762F7A
:1029800005C0662371F096E8862F70E060E02AF0BB
:102990009A95660F771F881FDAF7880F96958795A7
:1029A00097F90895990F0008550FAA0BE0E8FEEF7C
:1029B00016161706E807F907C0F012161306E40703
:1029C000F50798F0621B730B840B950B39F40A26FC
:1029D00061F0232B242B252B21F408950A2609F4DA
:1029E000A140A6958FEF811D811D08950E940915B4
:1029F0000C947A150E946C1538F00E94731520F023
:102A0000952311F00C9463150C94691511240C9402
:102A1000AE150E948B1570F3959FC1F3950F50E092
:102A2000551F629FF001729FBB27F00DB11D639F80
:102A3000AA27F00DB11DAA1F649F6627B00DA11D26
:102A4000661F829F2227B00DA11D621F739FB00DCC
:102A5000A11D621F839FA00D611D221F749F33273C
:102A6000A00D611D231F849F600D211D822F762FD5
:102A70006A2F11249F5750409AF0F1F088234AF0B2
:102A8000EE0FFF1FBB1F661F771F881F915050401E
:102A9000A9F79E3F510580F00C9463150C94AE1578
:102AA0005F3FE4F3983ED4F3869577956795B795A5
:102AB000F795E7959F5FC1F7FE2B880F911D9695BF
:102AC000879597F9089597F99F6780E870E060E02F
:102AD00008959FEF80EC089500240A9416161706B7
:102AE00018060906089500240A94121613061406FF
:102AF00005060895092E0394000C11F4882352F062
:102B0000BB0F40F4BF2B11F460FF04C06F5F7F4F19
:102B10008F4F9F4F089557FD9058440F551F59F000
:102B20005F3F71F04795880F97FB991F61F09F3FBA
:102B300079F087950895121613061406551FF2CFE3
:102B40004695F1DF08C0161617061806991FF1CF33
:102B500086957105610508940895E894BB2766275A
:102B60007727CB0197F908950E94F615A59F900D40
:102B7000B49F900DA49F800D911D112408952F9254
:102B80003F924F925F926F927F928F929F92AF92FD
:102B9000BF92CF92DF92EF92FF920F931F93CF934A
:102BA000DF93CDB7DEB7CA1BDB0B0FB6F894DEBFE1
:102BB0000FBECDBF09942A88398848885F846E8407
:102BC0007D848C849B84AA84B984C884DF80EE8051
:102BD000FD800C811B81AA81B981CE0FD11D0FB65A
:102BE000F894DEBF0FBECDBFED010895A29FB001E6
:102BF000B39FC001A39F700D811D1124911DB29F31
:102C0000700D811D1124911D08955058BB27AA27CE
:102C10000E941D160C947A150E946C1538F00E94C3
:102C2000731520F039F49F3F19F426F40C946915BC
:102C30000EF4E095E7FB0C946315E92F0E948B15C9
:102C400058F3BA17620773078407950720F079F4E1
:102C5000A6F50C94AD150EF4E0950B2EBA2FA02D11
:102C60000B01B90190010C01CA01A0011124FF2739
:102C7000591B99F0593F50F4503E68F11A16F04034
:102C8000A22F232F342F4427585FF3CF4695379533
:102C90002795A795F0405395C9F77EF41F16BA0BF8
:102CA000620B730B840BBAF09150A1F0FF0FBB1FA6
:102CB000661F771F881FC2F70EC0BA0F621F731FEF
:102CC000841F48F4879577956795B795F7959E3F4C
:102CD00008F0B0CF9395880F08F09927EE0F9795DD
:102CE000879508950E9486160C947A150E94731594
:102CF00058F00E946C1540F029F45F3F29F00C94C5
:102D0000631551110C94AE150C9469150E948B1526
:102D100068F39923B1F3552391F3951B550BBB270A
:102D2000AA2762177307840738F09F5F5F4F220F4F
:102D3000331F441FAA1FA9F335D00E2E3AF0E0E846
:102D400032D091505040E695001CCAF72BD0FE2F90
:102D500029D0660F771F881FBB1F26173707480724
:102D6000AB07B0E809F0BB0B802DBF01FF279358DC
:102D70005F4F3AF09E3F510578F00C9463150C9428
:102D8000AE155F3FE4F3983ED4F38695779567954B
:102D9000B795F7959F5FC9F7880F911D9695879511
:102DA00097F90895E1E0660F771F881FBB1F621730
:102DB00073078407BA0720F0621B730B840BBA0BEE
:102DC000EE1F88F7E09508950E94931588F09F57AD
:102DD00098F0B92F9927B751B0F0E1F0660F771F3F
:102DE000881F991F1AF0BA95C9F714C0B13091F035
:102DF0000E94AD15B1E008950C94AD15672F782FA2
:102E00008827B85F39F0B93FCCF3869577956795F9
:102E1000B395D9F73EF490958095709561957F4F65
:102E20008F4F9F4F08950E94D21408F48FEF08959A
:102E30000E94D214880B990B0895DB018F939F9306
:102E40000E94B415BF91AF91A29F800D911DA39FC9
:102E5000900DB29F900D1124089597FB072E16F444
:102E6000009407D077FD09D00E94711707FC05D0A8
:102E70003EF4909581959F4F0895709561957F4F91
:102E80000895A1E21A2EAA1BBB1BFD010DC0AA1FAB
:102E9000BB1FEE1FFF1FA217B307E407F50720F0C3
:102EA000A21BB30BE40BF50B661F771F881F991F3E
:102EB0001A9469F760957095809590959B01AC0187
:102EC000BD01CF010895EE0FFF1F0590F491E02D95
:102ED0000994B7FF0C94B4150E94B415821B930B90
:102EE0000895AA1BBB1B51E107C0AA1FBB1FA61751
:102EF000B70710F0A61BB70B881F991F5A95A9F7A3
:102F000080959095BC01CD0108950F931F93CF93A9
:102F1000DF938230910510F482E090E0E091F003BD
:102F2000F091F10330E020E0B0E0A0E0309799F4B8
:102F30002115310509F44AC0281B390B243031050D
:102F4000D8F58A819B816115710589F1FB01938315
:102F50008283FE0111C04081518102811381481793
:102F60005907E0F04817590799F4109761F0129645
:102F70000C93129713961C933296CF01DF91CF9149
:102F80001F910F9108950093F0031093F103F4CF74
:102F90002115310551F04217530738F0A901DB0123
:102FA0009A01BD01DF01F801C1CFEF01F9CF909384
:102FB000F1038093F003CDCFFE01E20FF31F819365
:102FC00091932250310939832883D7CF2091EE0382
:102FD0003091EF03232B41F4209103013091040140
:102FE0003093EF032093EE03209101013091020111
:102FF0002115310541F42DB73EB74091050150919F
:103000000601241B350BE091EE03F091EF03E2176C
:10301000F307A0F42E1B3F0B2817390778F0AC01FB
:103020004E5F5F4F2417350748F04E0F5F1F5093D8
:10303000EF034093EE03819391939FCFF0E0E0E0A4
:103040009CCFCF93DF930097E9F0FC013297138276
:103050001282A091F003B091F103ED0130E020E085
:103060001097A1F420813181820F931F2091EE03EC
:103070003091EF032817390709F061C0F093EF038F
:10308000E093EE03DF91CF910895EA01CE17DF07B9
:10309000E8F54A815B819E0141155105B1F7E901CF
:1030A000FB83EA8349915991C40FD51FEC17FD07A3
:1030B00061F4808191810296840F951FE9019983C3
:1030C0008883828193819B838A83F0E0E0E012967B
:1030D0008D919C9113970097B9F52D913C91119783
:1030E000CD010296820F931F2091EE033091EF03E2
:1030F0002817390739F6309751F51092F1031092DD
:10310000F003B093EF03A093EE03BCCFD383C2834D
:1031100040815181840F951FC817D90761F44E5F14
:103120005F4F88819981480F591F518340838A815D
:103130009B81938382832115310509F0B0CFF093F1
:10314000F103E093F0039ECFFD01DC01C0CF1382B9
:103150001282D7CFB0E0A0E0E0EBF8E10C94C1150B
:103160008C01009751F4CB010E9485178C01C80196
:10317000CDB7DEB7E0E10C94DD15FC01E60FF71FDB
:103180009C0122503109E217F30708F49DC0D901D0
:10319000CD91DC911197C617D70798F0C530D105AE
:1031A00030F3CE0104978617970708F3C61BD70B99
:1031B0002297C193D1936D937C93CF010E942118E4
:1031C000D6CF5B01AC1ABD0A4C018C0E9D1EA0919E
:1031D000F003B091F103512C412CF12CE12C10970C
:1031E00031F58091EE039091EF038815990509F070
:1031F0005CC04616570608F058C0809101019091B6
:103200000201009741F48DB79EB74091050150919E
:103210000601841B950BE817F90708F055C0F093D9
:10322000EF03E093EE03F90171836083A0CF8D91EA
:103230009C91119712966C90129713967C9013970D
:10324000A815B90559F56C0142E0C40ED11CCA1489
:10325000DB0420F1AC014A195B09DA0112961597DB
:1032600080F06282738251834083D9016D937C9395
:10327000E114F10471F0D7011396FC93EE931297C9
:1032800076CF22968C0F9D1FF90191838083F301E5
:10329000EFCFF093F103E093F00369CF481659069E
:1032A00008F42C017D01D3019ACFCB010E94851730
:1032B0007C01009749F0AE01B8010E946719C8016E
:1032C0000E942118870153CF10E000E050CFFB018E
:1032D000DC0102C001900D9241505040D8F7089592
:1032E000FB01DC0101900D920020E1F7089510E050
:1032F000C0EED0E004C0FE010E9463172196C13EDB
:08330000D107C9F7F894FFCFD3
:10330800FF0000F203800000000000BC021C02491C
:103318000209037A0258026C020000000046061CEB
:1033280002EF044004000000005A041C02EF045994
:1033380004B604CE0441046E616E00696E66006FC7
:10334800766600576F6D656E205361666574790007
:10335800446576696365005374617274696E6700C9
:10336800475053202B2047534D004750524D4300A0
:1033780047504747410047505320616E64204753E8
:103388004D00537461727465642E2E2E00576F6D54
:10339800616E206973205361666500576F6D616EB9
:1033A800204E4F5420536166650041542B434D47CE
:1033B800463D310D004154202B20434D4753203DBD
:1033C80020222B393158585858585858585858228C
:1033D800000D0A004C61746974756465203D200015
:1033E800204C6F6E676974756465203D20000D4937
:1033F80020616D20696E2044616E6765722121002D
:103408000D506C656173652068656C70206D652E64
:103418000D00476F6F676C65204D4150206C696ED9
:103428006B3A2068747470733A2F2F7777772E670A
:103438006F6F676C652E636F6D2F6D6170732F40B2
:08344800002C002C31377A0042
:00000001FF
